{
  "_format": "hh-sol-artifact-1",
  "contractName": "ERC20StandartSchain",
  "sourceName": "contracts/ERC20StandartSchain.sol",
  "abi": [
    {
      "inputs": [
        {
          "internalType": "string",
          "name": "contractName",
          "type": "string"
        },
        {
          "internalType": "string",
          "name": "contractSymbol",
          "type": "string"
        },
        {
          "internalType": "uint8",
          "name": "newDecimals",
          "type": "uint8"
        }
      ],
      "stateMutability": "nonpayable",
      "type": "constructor"
    },
    {
      "anonymous": false,
      "inputs": [
        {
          "indexed": true,
          "internalType": "address",
          "name": "owner",
          "type": "address"
        },
        {
          "indexed": true,
          "internalType": "address",
          "name": "spender",
          "type": "address"
        },
        {
          "indexed": false,
          "internalType": "uint256",
          "name": "value",
          "type": "uint256"
        }
      ],
      "name": "Approval",
      "type": "event"
    },
    {
      "anonymous": false,
      "inputs": [
        {
          "indexed": true,
          "internalType": "bytes32",
          "name": "role",
          "type": "bytes32"
        },
        {
          "indexed": true,
          "internalType": "bytes32",
          "name": "previousAdminRole",
          "type": "bytes32"
        },
        {
          "indexed": true,
          "internalType": "bytes32",
          "name": "newAdminRole",
          "type": "bytes32"
        }
      ],
      "name": "RoleAdminChanged",
      "type": "event"
    },
    {
      "anonymous": false,
      "inputs": [
        {
          "indexed": true,
          "internalType": "bytes32",
          "name": "role",
          "type": "bytes32"
        },
        {
          "indexed": true,
          "internalType": "address",
          "name": "account",
          "type": "address"
        },
        {
          "indexed": true,
          "internalType": "address",
          "name": "sender",
          "type": "address"
        }
      ],
      "name": "RoleGranted",
      "type": "event"
    },
    {
      "anonymous": false,
      "inputs": [
        {
          "indexed": true,
          "internalType": "bytes32",
          "name": "role",
          "type": "bytes32"
        },
        {
          "indexed": true,
          "internalType": "address",
          "name": "account",
          "type": "address"
        },
        {
          "indexed": true,
          "internalType": "address",
          "name": "sender",
          "type": "address"
        }
      ],
      "name": "RoleRevoked",
      "type": "event"
    },
    {
      "anonymous": false,
      "inputs": [
        {
          "indexed": true,
          "internalType": "address",
          "name": "from",
          "type": "address"
        },
        {
          "indexed": true,
          "internalType": "address",
          "name": "to",
          "type": "address"
        },
        {
          "indexed": false,
          "internalType": "uint256",
          "name": "value",
          "type": "uint256"
        }
      ],
      "name": "Transfer",
      "type": "event"
    },
    {
      "inputs": [],
      "name": "DEFAULT_ADMIN_ROLE",
      "outputs": [
        {
          "internalType": "bytes32",
          "name": "",
          "type": "bytes32"
        }
      ],
      "stateMutability": "view",
      "type": "function"
    },
    {
      "inputs": [],
      "name": "MINTER_ROLE",
      "outputs": [
        {
          "internalType": "bytes32",
          "name": "",
          "type": "bytes32"
        }
      ],
      "stateMutability": "view",
      "type": "function"
    },
    {
      "inputs": [
        {
          "internalType": "address",
          "name": "owner",
          "type": "address"
        },
        {
          "internalType": "address",
          "name": "spender",
          "type": "address"
        }
      ],
      "name": "allowance",
      "outputs": [
        {
          "internalType": "uint256",
          "name": "",
          "type": "uint256"
        }
      ],
      "stateMutability": "view",
      "type": "function"
    },
    {
      "inputs": [
        {
          "internalType": "address",
          "name": "spender",
          "type": "address"
        },
        {
          "internalType": "uint256",
          "name": "amount",
          "type": "uint256"
        }
      ],
      "name": "approve",
      "outputs": [
        {
          "internalType": "bool",
          "name": "",
          "type": "bool"
        }
      ],
      "stateMutability": "nonpayable",
      "type": "function"
    },
    {
      "inputs": [
        {
          "internalType": "address",
          "name": "account",
          "type": "address"
        }
      ],
      "name": "balanceOf",
      "outputs": [
        {
          "internalType": "uint256",
          "name": "",
          "type": "uint256"
        }
      ],
      "stateMutability": "view",
      "type": "function"
    },
    {
      "inputs": [
        {
          "internalType": "uint256",
          "name": "amount",
          "type": "uint256"
        }
      ],
      "name": "burn",
      "outputs": [],
      "stateMutability": "nonpayable",
      "type": "function"
    },
    {
      "inputs": [
        {
          "internalType": "address",
          "name": "account",
          "type": "address"
        },
        {
          "internalType": "uint256",
          "name": "amount",
          "type": "uint256"
        }
      ],
      "name": "burnFrom",
      "outputs": [],
      "stateMutability": "nonpayable",
      "type": "function"
    },
    {
      "inputs": [],
      "name": "decimals",
      "outputs": [
        {
          "internalType": "uint8",
          "name": "",
          "type": "uint8"
        }
      ],
      "stateMutability": "view",
      "type": "function"
    },
    {
      "inputs": [
        {
          "internalType": "address",
          "name": "spender",
          "type": "address"
        },
        {
          "internalType": "uint256",
          "name": "subtractedValue",
          "type": "uint256"
        }
      ],
      "name": "decreaseAllowance",
      "outputs": [
        {
          "internalType": "bool",
          "name": "",
          "type": "bool"
        }
      ],
      "stateMutability": "nonpayable",
      "type": "function"
    },
    {
      "inputs": [
        {
          "internalType": "bytes32",
          "name": "role",
          "type": "bytes32"
        }
      ],
      "name": "getRoleAdmin",
      "outputs": [
        {
          "internalType": "bytes32",
          "name": "",
          "type": "bytes32"
        }
      ],
      "stateMutability": "view",
      "type": "function"
    },
    {
      "inputs": [
        {
          "internalType": "bytes32",
          "name": "role",
          "type": "bytes32"
        },
        {
          "internalType": "uint256",
          "name": "index",
          "type": "uint256"
        }
      ],
      "name": "getRoleMember",
      "outputs": [
        {
          "internalType": "address",
          "name": "",
          "type": "address"
        }
      ],
      "stateMutability": "view",
      "type": "function"
    },
    {
      "inputs": [
        {
          "internalType": "bytes32",
          "name": "role",
          "type": "bytes32"
        }
      ],
      "name": "getRoleMemberCount",
      "outputs": [
        {
          "internalType": "uint256",
          "name": "",
          "type": "uint256"
        }
      ],
      "stateMutability": "view",
      "type": "function"
    },
    {
      "inputs": [
        {
          "internalType": "bytes32",
          "name": "role",
          "type": "bytes32"
        },
        {
          "internalType": "address",
          "name": "account",
          "type": "address"
        }
      ],
      "name": "grantRole",
      "outputs": [],
      "stateMutability": "nonpayable",
      "type": "function"
    },
    {
      "inputs": [
        {
          "internalType": "bytes32",
          "name": "role",
          "type": "bytes32"
        },
        {
          "internalType": "address",
          "name": "account",
          "type": "address"
        }
      ],
      "name": "hasRole",
      "outputs": [
        {
          "internalType": "bool",
          "name": "",
          "type": "bool"
        }
      ],
      "stateMutability": "view",
      "type": "function"
    },
    {
      "inputs": [
        {
          "internalType": "address",
          "name": "spender",
          "type": "address"
        },
        {
          "internalType": "uint256",
          "name": "addedValue",
          "type": "uint256"
        }
      ],
      "name": "increaseAllowance",
      "outputs": [
        {
          "internalType": "bool",
          "name": "",
          "type": "bool"
        }
      ],
      "stateMutability": "nonpayable",
      "type": "function"
    },
    {
      "inputs": [
        {
          "internalType": "address",
          "name": "account",
          "type": "address"
        },
        {
          "internalType": "uint256",
          "name": "value",
          "type": "uint256"
        }
      ],
      "name": "mint",
      "outputs": [],
      "stateMutability": "nonpayable",
      "type": "function"
    },
    {
      "inputs": [],
      "name": "name",
      "outputs": [
        {
          "internalType": "string",
          "name": "",
          "type": "string"
        }
      ],
      "stateMutability": "view",
      "type": "function"
    },
    {
      "inputs": [
        {
          "internalType": "bytes32",
          "name": "role",
          "type": "bytes32"
        },
        {
          "internalType": "address",
          "name": "account",
          "type": "address"
        }
      ],
      "name": "renounceRole",
      "outputs": [],
      "stateMutability": "nonpayable",
      "type": "function"
    },
    {
      "inputs": [
        {
          "internalType": "bytes32",
          "name": "role",
          "type": "bytes32"
        },
        {
          "internalType": "address",
          "name": "account",
          "type": "address"
        }
      ],
      "name": "revokeRole",
      "outputs": [],
      "stateMutability": "nonpayable",
      "type": "function"
    },
    {
      "inputs": [
        {
          "internalType": "bytes4",
          "name": "interfaceId",
          "type": "bytes4"
        }
      ],
      "name": "supportsInterface",
      "outputs": [
        {
          "internalType": "bool",
          "name": "",
          "type": "bool"
        }
      ],
      "stateMutability": "view",
      "type": "function"
    },
    {
      "inputs": [],
      "name": "symbol",
      "outputs": [
        {
          "internalType": "string",
          "name": "",
          "type": "string"
        }
      ],
      "stateMutability": "view",
      "type": "function"
    },
    {
      "inputs": [],
      "name": "totalSupply",
      "outputs": [
        {
          "internalType": "uint256",
          "name": "",
          "type": "uint256"
        }
      ],
      "stateMutability": "view",
      "type": "function"
    },
    {
      "inputs": [
        {
          "internalType": "address",
          "name": "to",
          "type": "address"
        },
        {
          "internalType": "uint256",
          "name": "amount",
          "type": "uint256"
        }
      ],
      "name": "transfer",
      "outputs": [
        {
          "internalType": "bool",
          "name": "",
          "type": "bool"
        }
      ],
      "stateMutability": "nonpayable",
      "type": "function"
    },
    {
      "inputs": [
        {
          "internalType": "address",
          "name": "from",
          "type": "address"
        },
        {
          "internalType": "address",
          "name": "to",
          "type": "address"
        },
        {
          "internalType": "uint256",
          "name": "amount",
          "type": "uint256"
        }
      ],
      "name": "transferFrom",
      "outputs": [
        {
          "internalType": "bool",
          "name": "",
          "type": "bool"
        }
      ],
      "stateMutability": "nonpayable",
      "type": "function"
    }
  ],
  "bytecode": "0x60806040523480156200001157600080fd5b50604051620019b6380380620019b68339810160408190526200003491620003d7565b8251839083906200004d9060039060208501906200027a565b508051620000639060049060208401906200027a565b505050620000876000805160206200199683398151915280620000c660201b60201c565b620000a96000805160206200199683398151915263d2aaa00560801b62000111565b6007805460ff191660ff9290921691909117905550620004af9050565b600082815260056020526040808220600101805490849055905190918391839186917fbd79b86ffe0ab8e8776151514217cd7cacd52c909f66475c3af44e129f0b00ff9190a4505050565b6200011d828262000121565b5050565b6200013882826200016460201b620007271760201c565b60008281526006602090815260409091206200015f918390620007ad62000208821b17901c565b505050565b60008281526005602090815260408083206001600160a01b038516845290915290205460ff166200011d5760008281526005602090815260408083206001600160a01b03851684529091529020805460ff19166001179055620001c43390565b6001600160a01b0316816001600160a01b0316837f2f8788117e7eff1d82e926ec794901d17c78024a50270940304540a733656f0d60405160405180910390a45050565b60006200021f836001600160a01b03841662000228565b90505b92915050565b6000818152600183016020526040812054620002715750815460018181018455600084815260208082209093018490558454848252828601909352604090209190915562000222565b50600062000222565b82805462000288906200045c565b90600052602060002090601f016020900481019282620002ac5760008555620002f7565b82601f10620002c757805160ff1916838001178555620002f7565b82800160010185558215620002f7579182015b82811115620002f7578251825591602001919060010190620002da565b506200030592915062000309565b5090565b5b808211156200030557600081556001016200030a565b600082601f8301126200033257600080fd5b81516001600160401b03808211156200034f576200034f62000499565b604051601f8301601f19908116603f011681019082821181831017156200037a576200037a62000499565b816040528381526020925086838588010111156200039757600080fd5b600091505b83821015620003bb57858201830151818301840152908201906200039c565b83821115620003cd5760008385830101525b9695505050505050565b600080600060608486031215620003ed57600080fd5b83516001600160401b03808211156200040557600080fd5b620004138783880162000320565b945060208601519150808211156200042a57600080fd5b50620004398682870162000320565b925050604084015160ff811681146200045157600080fd5b809150509250925092565b600181811c908216806200047157607f821691505b602082108114156200049357634e487b7160e01b600052602260045260246000fd5b50919050565b634e487b7160e01b600052604160045260246000fd5b6114d780620004bf6000396000f3fe608060405234801561001057600080fd5b50600436106101585760003560e01c806370a08231116100c3578063a457c2d71161007c578063a457c2d7146102f5578063a9059cbb14610308578063ca15c8731461031b578063d53913931461032e578063d547741f14610355578063dd62ed3e1461036857600080fd5b806370a082311461026b57806379cc6790146102945780639010d07c146102a757806391d14854146102d257806395d89b41146102e5578063a217fddf146102ed57600080fd5b80632f2ff15d116101155780632f2ff15d146101f5578063313ce5671461020a57806336568abe1461021f578063395093511461023257806340c10f191461024557806342966c681461025857600080fd5b806301ffc9a71461015d57806306fdde0314610185578063095ea7b31461019a57806318160ddd146101ad57806323b872dd146101bf578063248a9ca3146101d2575b600080fd5b61017061016b3660046112ab565b61037b565b60405190151581526020015b60405180910390f35b61018d6103a6565b60405161017c919061134a565b6101706101a8366004611223565b610438565b6002545b60405190815260200161017c565b6101706101cd3660046111e7565b610450565b6101b16101e036600461124d565b60009081526005602052604090206001015490565b610208610203366004611266565b610474565b005b60075460405160ff909116815260200161017c565b61020861022d366004611266565b61049e565b610170610240366004611223565b610521565b610208610253366004611223565b610543565b61020861026636600461124d565b6105bc565b6101b1610279366004611199565b6001600160a01b031660009081526020819052604090205490565b6102086102a2366004611223565b6105c9565b6102ba6102b5366004611289565b6105de565b6040516001600160a01b03909116815260200161017c565b6101706102e0366004611266565b6105fd565b61018d610628565b6101b1600081565b610170610303366004611223565b610637565b610170610316366004611223565b6106b2565b6101b161032936600461124d565b6106c0565b6101b17f9f2df0fed2c77648de5860a4cc508cd0818c85b8b8a1ab4ceeef8d981c8956a681565b610208610363366004611266565b6106d7565b6101b16103763660046111b4565b6106fc565b60006001600160e01b03198216635a05180f60e01b14806103a057506103a0826107c2565b92915050565b6060600380546103b59061140e565b80601f01602080910402602001604051908101604052809291908181526020018280546103e19061140e565b801561042e5780601f106104035761010080835404028352916020019161042e565b820191906000526020600020905b81548152906001019060200180831161041157829003601f168201915b5050505050905090565b6000336104468185856107f7565b5060019392505050565b60003361045e85828561091b565b610469858585610995565b506001949350505050565b60008281526005602052604090206001015461048f81610b39565b6104998383610b43565b505050565b6001600160a01b03811633146105135760405162461bcd60e51b815260206004820152602f60248201527f416363657373436f6e74726f6c3a2063616e206f6e6c792072656e6f756e636560448201526e103937b632b9903337b91039b2b63360891b60648201526084015b60405180910390fd5b61051d8282610b65565b5050565b60003361044681858561053483836106fc565b61053e919061137d565b6107f7565b61056d7f9f2df0fed2c77648de5860a4cc508cd0818c85b8b8a1ab4ceeef8d981c8956a6336105fd565b6105b25760405162461bcd60e51b815260206004820152601660248201527529b2b73232b91034b9903737ba10309026b4b73a32b960511b604482015260640161050a565b61051d8282610b87565b6105c63382610c46565b50565b6105d482338361091b565b61051d8282610c46565b60008281526006602052604081206105f69083610d78565b9392505050565b60009182526005602090815260408084206001600160a01b0393909316845291905290205460ff1690565b6060600480546103b59061140e565b6000338161064582866106fc565b9050838110156106a55760405162461bcd60e51b815260206004820152602560248201527f45524332303a2064656372656173656420616c6c6f77616e63652062656c6f77604482015264207a65726f60d81b606482015260840161050a565b61046982868684036107f7565b600033610446818585610995565b60008181526006602052604081206103a090610d84565b6000828152600560205260409020600101546106f281610b39565b6104998383610b65565b6001600160a01b03918216600090815260016020908152604080832093909416825291909152205490565b61073182826105fd565b61051d5760008281526005602090815260408083206001600160a01b03851684529091529020805460ff191660011790556107693390565b6001600160a01b0316816001600160a01b0316837f2f8788117e7eff1d82e926ec794901d17c78024a50270940304540a733656f0d60405160405180910390a45050565b60006105f6836001600160a01b038416610d8e565b60006001600160e01b03198216637965db0b60e01b14806103a057506301ffc9a760e01b6001600160e01b03198316146103a0565b6001600160a01b0383166108595760405162461bcd60e51b8152602060048201526024808201527f45524332303a20617070726f76652066726f6d20746865207a65726f206164646044820152637265737360e01b606482015260840161050a565b6001600160a01b0382166108ba5760405162461bcd60e51b815260206004820152602260248201527f45524332303a20617070726f766520746f20746865207a65726f206164647265604482015261737360f01b606482015260840161050a565b6001600160a01b0383811660008181526001602090815260408083209487168084529482529182902085905590518481527f8c5be1e5ebec7d5bd14f71427d1e84f3dd0314c0f7b2291e5b200ac8c7c3b925910160405180910390a3505050565b600061092784846106fc565b9050600019811461098f57818110156109825760405162461bcd60e51b815260206004820152601d60248201527f45524332303a20696e73756666696369656e7420616c6c6f77616e6365000000604482015260640161050a565b61098f84848484036107f7565b50505050565b6001600160a01b0383166109f95760405162461bcd60e51b815260206004820152602560248201527f45524332303a207472616e736665722066726f6d20746865207a65726f206164604482015264647265737360d81b606482015260840161050a565b6001600160a01b038216610a5b5760405162461bcd60e51b815260206004820152602360248201527f45524332303a207472616e7366657220746f20746865207a65726f206164647260448201526265737360e81b606482015260840161050a565b6001600160a01b03831660009081526020819052604090205481811015610ad35760405162461bcd60e51b815260206004820152602660248201527f45524332303a207472616e7366657220616d6f756e7420657863656564732062604482015265616c616e636560d01b606482015260840161050a565b6001600160a01b03848116600081815260208181526040808320878703905593871680835291849020805487019055925185815290927fddf252ad1be2c89b69c2b068fc378daa952ba7f163c4a11628f55a4df523b3ef910160405180910390a361098f565b6105c68133610ddd565b610b4d8282610727565b600082815260066020526040902061049990826107ad565b610b6f8282610e36565b60008281526006602052604090206104999082610e9d565b6001600160a01b038216610bdd5760405162461bcd60e51b815260206004820152601f60248201527f45524332303a206d696e7420746f20746865207a65726f206164647265737300604482015260640161050a565b8060026000828254610bef919061137d565b90915550506001600160a01b038216600081815260208181526040808320805486019055518481527fddf252ad1be2c89b69c2b068fc378daa952ba7f163c4a11628f55a4df523b3ef910160405180910390a35050565b6001600160a01b038216610ca65760405162461bcd60e51b815260206004820152602160248201527f45524332303a206275726e2066726f6d20746865207a65726f206164647265736044820152607360f81b606482015260840161050a565b6001600160a01b03821660009081526020819052604090205481811015610d1a5760405162461bcd60e51b815260206004820152602260248201527f45524332303a206275726e20616d6f756e7420657863656564732062616c616e604482015261636560f01b606482015260840161050a565b6001600160a01b0383166000818152602081815260408083208686039055600280548790039055518581529192917fddf252ad1be2c89b69c2b068fc378daa952ba7f163c4a11628f55a4df523b3ef910160405180910390a3505050565b60006105f68383610eb2565b60006103a0825490565b6000818152600183016020526040812054610dd5575081546001818101845560008481526020808220909301849055845484825282860190935260409020919091556103a0565b5060006103a0565b610de782826105fd565b61051d57610df481610edc565b610dff836020610eee565b604051602001610e109291906112d5565b60408051601f198184030181529082905262461bcd60e51b825261050a9160040161134a565b610e4082826105fd565b1561051d5760008281526005602090815260408083206001600160a01b0385168085529252808320805460ff1916905551339285917ff6391f5c32d9c69d2a47ea670b442974b53935d1edc7fd64eb21e047a839171b9190a45050565b60006105f6836001600160a01b03841661108a565b6000826000018281548110610ec957610ec9611475565b9060005260206000200154905092915050565b60606103a06001600160a01b03831660145b60606000610efd836002611395565b610f0890600261137d565b67ffffffffffffffff811115610f2057610f2061148b565b6040519080825280601f01601f191660200182016040528015610f4a576020820181803683370190505b509050600360fc1b81600081518110610f6557610f65611475565b60200101906001600160f81b031916908160001a905350600f60fb1b81600181518110610f9457610f94611475565b60200101906001600160f81b031916908160001a9053506000610fb8846002611395565b610fc390600161137d565b90505b600181111561103b576f181899199a1a9b1b9c1cb0b131b232b360811b85600f1660108110610ff757610ff7611475565b1a60f81b82828151811061100d5761100d611475565b60200101906001600160f81b031916908160001a90535060049490941c93611034816113f7565b9050610fc6565b5083156105f65760405162461bcd60e51b815260206004820181905260248201527f537472696e67733a20686578206c656e67746820696e73756666696369656e74604482015260640161050a565b600081815260018301602052604081205480156111735760006110ae6001836113b4565b85549091506000906110c2906001906113b4565b90508181146111275760008660000182815481106110e2576110e2611475565b906000526020600020015490508087600001848154811061110557611105611475565b6000918252602080832090910192909255918252600188019052604090208390555b85548690806111385761113861145f565b6001900381819060005260206000200160009055905585600101600086815260200190815260200160002060009055600193505050506103a0565b60009150506103a0565b80356001600160a01b038116811461119457600080fd5b919050565b6000602082840312156111ab57600080fd5b6105f68261117d565b600080604083850312156111c757600080fd5b6111d08361117d565b91506111de6020840161117d565b90509250929050565b6000806000606084860312156111fc57600080fd5b6112058461117d565b92506112136020850161117d565b9150604084013590509250925092565b6000806040838503121561123657600080fd5b61123f8361117d565b946020939093013593505050565b60006020828403121561125f57600080fd5b5035919050565b6000806040838503121561127957600080fd5b823591506111de6020840161117d565b6000806040838503121561129c57600080fd5b50508035926020909101359150565b6000602082840312156112bd57600080fd5b81356001600160e01b0319811681146105f657600080fd5b7f416363657373436f6e74726f6c3a206163636f756e742000000000000000000081526000835161130d8160178501602088016113cb565b7001034b99036b4b9b9b4b733903937b6329607d1b601791840191820152835161133e8160288401602088016113cb565b01602801949350505050565b60208152600082518060208401526113698160408501602087016113cb565b601f01601f19169190910160400192915050565b6000821982111561139057611390611449565b500190565b60008160001904831182151516156113af576113af611449565b500290565b6000828210156113c6576113c6611449565b500390565b60005b838110156113e65781810151838201526020016113ce565b8381111561098f5750506000910152565b60008161140657611406611449565b506000190190565b600181811c9082168061142257607f821691505b6020821081141561144357634e487b7160e01b600052602260045260246000fd5b50919050565b634e487b7160e01b600052601160045260246000fd5b634e487b7160e01b600052603160045260246000fd5b634e487b7160e01b600052603260045260246000fd5b634e487b7160e01b600052604160045260246000fdfea26469706673582212209e391b31a5daa7a596c0fffa986e813cf4bb3d2528afa6ee3eb140ba3bcfbefa64736f6c634300080600339f2df0fed2c77648de5860a4cc508cd0818c85b8b8a1ab4ceeef8d981c8956a6",
  "linkReferences": {},
  "deployedLinkReferences": {}
}